{
  "contractName": "Vote",
  "abi": [
    {
      "inputs": [
        {
          "internalType": "uint256",
          "name": "_endTime",
          "type": "uint256"
        }
      ],
      "stateMutability": "nonpayable",
      "type": "constructor"
    },
    {
      "anonymous": false,
      "inputs": [
        {
          "indexed": true,
          "internalType": "address",
          "name": "voter",
          "type": "address"
        },
        {
          "indexed": false,
          "internalType": "uint256",
          "name": "target",
          "type": "uint256"
        }
      ],
      "name": "onVote",
      "type": "event"
    },
    {
      "stateMutability": "payable",
      "type": "fallback",
      "payable": true
    },
    {
      "inputs": [
        {
          "internalType": "uint256",
          "name": "",
          "type": "uint256"
        }
      ],
      "name": "list",
      "outputs": [
        {
          "internalType": "string",
          "name": "name",
          "type": "string"
        },
        {
          "internalType": "uint256",
          "name": "votes",
          "type": "uint256"
        },
        {
          "internalType": "address payable",
          "name": "ads",
          "type": "address"
        }
      ],
      "stateMutability": "view",
      "type": "function",
      "constant": true
    },
    {
      "inputs": [],
      "name": "owner",
      "outputs": [
        {
          "internalType": "address payable",
          "name": "",
          "type": "address"
        }
      ],
      "stateMutability": "view",
      "type": "function",
      "constant": true
    },
    {
      "inputs": [
        {
          "internalType": "address",
          "name": "",
          "type": "address"
        }
      ],
      "name": "voted",
      "outputs": [
        {
          "internalType": "bool",
          "name": "",
          "type": "bool"
        }
      ],
      "stateMutability": "view",
      "type": "function",
      "constant": true
    },
    {
      "stateMutability": "payable",
      "type": "receive",
      "payable": true
    },
    {
      "inputs": [
        {
          "internalType": "uint256",
          "name": "target",
          "type": "uint256"
        }
      ],
      "name": "vote",
      "outputs": [],
      "stateMutability": "payable",
      "type": "function",
      "payable": true
    },
    {
      "inputs": [
        {
          "internalType": "uint256",
          "name": "time",
          "type": "uint256"
        }
      ],
      "name": "setEndTime",
      "outputs": [],
      "stateMutability": "nonpayable",
      "type": "function"
    },
    {
      "inputs": [],
      "name": "endVote",
      "outputs": [],
      "stateMutability": "nonpayable",
      "type": "function"
    },
    {
      "inputs": [],
      "name": "getBalance",
      "outputs": [
        {
          "internalType": "uint256",
          "name": "",
          "type": "uint256"
        }
      ],
      "stateMutability": "view",
      "type": "function",
      "constant": true
    }
  ],
  "bytecode": "0x60806040523480156200001157600080fd5b506040516200179138038062001791833981810160405281019062000037919062000b25565b8060018190555033600260006101000a81548173ffffffffffffffffffffffffffffffffffffffff021916908373ffffffffffffffffffffffffffffffffffffffff160217905550600360405180606001604052806040518060400160405280600881526020017f44656e675368656e00000000000000000000000000000000000000000000000081525081526020016000815260200173d96de875d586743ce457e8ef72145ae75715f7e173ffffffffffffffffffffffffffffffffffffffff16815250908060018154018082558091505060019003906000526020600020906003020160009091909190915060008201518160000190805190602001906200014392919062000a5e565b506020820151816001015560408201518160020160006101000a81548173ffffffffffffffffffffffffffffffffffffffff021916908373ffffffffffffffffffffffffffffffffffffffff1602179055505050600360405180606001604052806040518060400160405280600881526020017f4c694a696c616e6700000000000000000000000000000000000000000000000081525081526020016000815260200173303fc2fc594cf19014da9831646581cdfc7eca2e73ffffffffffffffffffffffffffffffffffffffff16815250908060018154018082558091505060019003906000526020600020906003020160009091909190915060008201518160000190805190602001906200025b92919062000a5e565b506020820151816001015560408201518160020160006101000a81548173ffffffffffffffffffffffffffffffffffffffff021916908373ffffffffffffffffffffffffffffffffffffffff1602179055505050600360405180606001604052806040518060400160405280600981526020017f516975597568616e67000000000000000000000000000000000000000000000081525081526020016000815260200173be188cb3730d91bbf2272e0b827acf6ffdb4d07473ffffffffffffffffffffffffffffffffffffffff16815250908060018154018082558091505060019003906000526020600020906003020160009091909190915060008201518160000190805190602001906200037392919062000a5e565b506020820151816001015560408201518160020160006101000a81548173ffffffffffffffffffffffffffffffffffffffff021916908373ffffffffffffffffffffffffffffffffffffffff1602179055505050600360405180606001604052806040518060400160405280600a81526020017f52616f57656e62696e670000000000000000000000000000000000000000000081525081526020016000815260200173e8d3ceab4e5e0d33361da6c7355835417a9b3bbe73ffffffffffffffffffffffffffffffffffffffff16815250908060018154018082558091505060019003906000526020600020906003020160009091909190915060008201518160000190805190602001906200048b92919062000a5e565b506020820151816001015560408201518160020160006101000a81548173ffffffffffffffffffffffffffffffffffffffff021916908373ffffffffffffffffffffffffffffffffffffffff1602179055505050600360405180606001604052806040518060400160405280600781526020017f57616e6758696e000000000000000000000000000000000000000000000000008152508152602001600081526020017325309087503c0c7a4f2e9b1a04875747d61340ec73ffffffffffffffffffffffffffffffffffffffff1681525090806001815401808255809150506001900390600052602060002090600302016000909190919091506000820151816000019080519060200190620005a392919062000a5e565b506020820151816001015560408201518160020160006101000a81548173ffffffffffffffffffffffffffffffffffffffff021916908373ffffffffffffffffffffffffffffffffffffffff1602179055505050600360405180606001604052806040518060400160405280600681526020017f587557616e67000000000000000000000000000000000000000000000000000081525081526020016000815260200173535186c86b22b423d150530ebd57e48d4297a9cc73ffffffffffffffffffffffffffffffffffffffff1681525090806001815401808255809150506001900390600052602060002090600302016000909190919091506000820151816000019080519060200190620006bb92919062000a5e565b506020820151816001015560408201518160020160006101000a81548173ffffffffffffffffffffffffffffffffffffffff021916908373ffffffffffffffffffffffffffffffffffffffff1602179055505050600360405180606001604052806040518060400160405280600a81526020017f59616e674c69646f6e6700000000000000000000000000000000000000000000815250815260200160008152602001736143ccc61f582b38626aadae93d1f119c66b2a7073ffffffffffffffffffffffffffffffffffffffff1681525090806001815401808255809150506001900390600052602060002090600302016000909190919091506000820151816000019080519060200190620007d392919062000a5e565b506020820151816001015560408201518160020160006101000a81548173ffffffffffffffffffffffffffffffffffffffff021916908373ffffffffffffffffffffffffffffffffffffffff1602179055505050600360405180606001604052806040518060400160405280600b81526020017f5a686f6e6744616b616e67000000000000000000000000000000000000000000815250815260200160008152602001738fb155803f695dbe7b53b94bc1bb6db5d338d60b73ffffffffffffffffffffffffffffffffffffffff1681525090806001815401808255809150506001900390600052602060002090600302016000909190919091506000820151816000019080519060200190620008eb92919062000a5e565b506020820151816001015560408201518160020160006101000a81548173ffffffffffffffffffffffffffffffffffffffff021916908373ffffffffffffffffffffffffffffffffffffffff1602179055505050600360405180606001604052806040518060400160405280600981526020017f5a686f7548756979750000000000000000000000000000000000000000000000815250815260200160008152602001735b9eda1f23501d891b299919dee69ce00004cf1273ffffffffffffffffffffffffffffffffffffffff168152509080600181540180825580915050600190039060005260206000209060030201600090919091909150600082015181600001908051906020019062000a0392919062000a5e565b506020820151816001015560408201518160020160006101000a81548173ffffffffffffffffffffffffffffffffffffffff021916908373ffffffffffffffffffffffffffffffffffffffff16021790555050505062000bda565b82805462000a6c9062000b5b565b90600052602060002090601f01602090048101928262000a90576000855562000adc565b82601f1062000aab57805160ff191683800117855562000adc565b8280016001018555821562000adc579182015b8281111562000adb57825182559160200191906001019062000abe565b5b50905062000aeb919062000aef565b5090565b5b8082111562000b0a57600081600090555060010162000af0565b5090565b60008151905062000b1f8162000bc0565b92915050565b60006020828403121562000b3857600080fd5b600062000b488482850162000b0e565b91505092915050565b6000819050919050565b6000600282049050600182168062000b7457607f821691505b6020821081141562000b8b5762000b8a62000b91565b5b50919050565b7f4e487b7100000000000000000000000000000000000000000000000000000000600052602260045260246000fd5b62000bcb8162000b51565b811462000bd757600080fd5b50565b610ba78062000bea6000396000f3fe6080604052600436106100745760003560e01c80638da5cb5b1161004e5780638da5cb5b14610103578063aec2ccae1461012e578063b92239461461016b578063ccb98ffc146101825761007b565b80630121b93f1461007d57806312065fe01461009957806380c9419e146100c45761007b565b3661007b57005b005b61009760048036038101906100929190610772565b6101ab565b005b3480156100a557600080fd5b506100ae610343565b6040516100bb9190610995565b60405180910390f35b3480156100d057600080fd5b506100eb60048036038101906100e69190610772565b61034b565b6040516100fa939291906108f7565b60405180910390f35b34801561010f57600080fd5b5061011861042d565b60405161012591906108c1565b60405180910390f35b34801561013a57600080fd5b5061015560048036038101906101509190610749565b610453565b60405161016291906108dc565b60405180910390f35b34801561017757600080fd5b50610180610473565b005b34801561018e57600080fd5b506101a960048036038101906101a49190610772565b610685565b005b60015442106101ef576040517f08c379a00000000000000000000000000000000000000000000000000000000081526004016101e690610975565b60405180910390fd5b67016345785d8a000034101561023a576040517f08c379a000000000000000000000000000000000000000000000000000000000815260040161023190610935565b60405180910390fd5b60016000803373ffffffffffffffffffffffffffffffffffffffff1673ffffffffffffffffffffffffffffffffffffffff16815260200190815260200160002060006101000a81548160ff021916908315150217905550600381815481106102cb577f4e487b7100000000000000000000000000000000000000000000000000000000600052603260045260246000fd5b906000526020600020906003020160010160008154809291906102ed90610a8b565b91905055503373ffffffffffffffffffffffffffffffffffffffff167f3fa7ed1e2441ff36c8051bedda588c5575da77fd323ee7ace6ca94a7206e8789826040516103389190610995565b60405180910390a250565b600047905090565b6003818154811061035b57600080fd5b906000526020600020906003020160009150905080600001805461037e90610a59565b80601f01602080910402602001604051908101604052809291908181526020018280546103aa90610a59565b80156103f75780601f106103cc576101008083540402835291602001916103f7565b820191906000526020600020905b8154815290600101906020018083116103da57829003601f168201915b5050505050908060010154908060020160009054906101000a900473ffffffffffffffffffffffffffffffffffffffff16905083565b600260009054906101000a900473ffffffffffffffffffffffffffffffffffffffff1681565b60006020528060005260406000206000915054906101000a900460ff1681565b600260009054906101000a900473ffffffffffffffffffffffffffffffffffffffff1673ffffffffffffffffffffffffffffffffffffffff163373ffffffffffffffffffffffffffffffffffffffff1614610503576040517f08c379a00000000000000000000000000000000000000000000000000000000081526004016104fa90610955565b60405180910390fd5b60008060005b6003805490508110156105ce578260038281548110610551577f4e487b7100000000000000000000000000000000000000000000000000000000600052603260045260246000fd5b90600052602060002090600302016001015411156105bb57600381815481106105a3577f4e487b7100000000000000000000000000000000000000000000000000000000600052603260045260246000fd5b90600052602060002090600302016001015492508091505b80806105c690610a8b565b915050610509565b5060038181548110610609577f4e487b7100000000000000000000000000000000000000000000000000000000600052603260045260246000fd5b906000526020600020906003020160020160009054906101000a900473ffffffffffffffffffffffffffffffffffffffff1673ffffffffffffffffffffffffffffffffffffffff166108fc479081150290604051600060405180830381858888f19350505050158015610680573d6000803e3d6000fd5b505050565b600260009054906101000a900473ffffffffffffffffffffffffffffffffffffffff1673ffffffffffffffffffffffffffffffffffffffff163373ffffffffffffffffffffffffffffffffffffffff1614610715576040517f08c379a000000000000000000000000000000000000000000000000000000000815260040161070c90610955565b60405180910390fd5b8060018190555050565b60008135905061072e81610b43565b92915050565b60008135905061074381610b5a565b92915050565b60006020828403121561075b57600080fd5b60006107698482850161071f565b91505092915050565b60006020828403121561078457600080fd5b600061079284828501610734565b91505092915050565b6107a4816109de565b82525050565b6107b3816109f0565b82525050565b60006107c4826109b0565b6107ce81856109bb565b93506107de818560208601610a26565b6107e781610b32565b840191505092915050565b60006107ff6002836109bb565b91507f2d320000000000000000000000000000000000000000000000000000000000006000830152602082019050919050565b600061083f6002836109bb565b91507f2d330000000000000000000000000000000000000000000000000000000000006000830152602082019050919050565b600061087f6002836109bb565b91507f2d310000000000000000000000000000000000000000000000000000000000006000830152602082019050919050565b6108bb81610a1c565b82525050565b60006020820190506108d6600083018461079b565b92915050565b60006020820190506108f160008301846107aa565b92915050565b6000606082019050818103600083015261091181866107b9565b905061092060208301856108b2565b61092d604083018461079b565b949350505050565b6000602082019050818103600083015261094e816107f2565b9050919050565b6000602082019050818103600083015261096e81610832565b9050919050565b6000602082019050818103600083015261098e81610872565b9050919050565b60006020820190506109aa60008301846108b2565b92915050565b600081519050919050565b600082825260208201905092915050565b60006109d7826109fc565b9050919050565b60006109e9826109fc565b9050919050565b60008115159050919050565b600073ffffffffffffffffffffffffffffffffffffffff82169050919050565b6000819050919050565b60005b83811015610a44578082015181840152602081019050610a29565b83811115610a53576000848401525b50505050565b60006002820490506001821680610a7157607f821691505b60208210811415610a8557610a84610b03565b5b50919050565b6000610a9682610a1c565b91507fffffffffffffffffffffffffffffffffffffffffffffffffffffffffffffffff821415610ac957610ac8610ad4565b5b600182019050919050565b7f4e487b7100000000000000000000000000000000000000000000000000000000600052601160045260246000fd5b7f4e487b7100000000000000000000000000000000000000000000000000000000600052602260045260246000fd5b6000601f19601f8301169050919050565b610b4c816109cc565b8114610b5757600080fd5b50565b610b6381610a1c565b8114610b6e57600080fd5b5056fea26469706673582212200f9fae89c965e4c22c7df2a2605f50f24cec9cb98966ae2bb78ea3f80e158b0764736f6c63430008000033",
  "immutableReferences": {},
  "source": "//  Vote\n\n// \n// SPDX-License-Identifier: GPL-3.0\n\n// \n// pragma solidity = 0.8.7;\n\n// \npragma solidity >=0.8.0 <0.9.0;\n\n//  contract \ncontract Vote {\n    // \n\n    // Event Vote  onVote \n    //  emit \n    event onVote(address indexed voter, uint256 target);\n\n    mapping(address => bool) public voted; // mapping \n    uint256 endTime; // \n    address payable public owner; // \n\n    struct Person {\n        string name;\n        uint256 votes;\n        address payable ads;\n    }\n\n    // \n    Person[] public list;\n\n    // uint256 public DengShen; // 1\n    // uint256 public LiJilang; // 2\n    // uint256 public QiuYuhang; // 3\n    // uint256 public RaoWenbing; // 4\n    // uint256 public WangXin; // 5\n    // uint256 public XuWang; // 6\n    // uint256 public YangLidong; // 7\n    // uint256 public ZhongDakang; // 8\n    // uint256 public ZhouHuiyu; // 9\n    // address payable DengShen\n\n    //  0  false bool mapping\n    // \n    constructor(uint256 _endTime) {\n        endTime = _endTime;\n        owner = payable(msg.sender);\n\n        list.push(\n            Person({\n                name: \"DengShen\",\n                votes: 0,\n                ads: payable(0xD96DE875d586743CE457E8Ef72145Ae75715F7E1)\n            })\n        );\n        list.push(\n            Person({\n                name: \"LiJilang\",\n                votes: 0,\n                ads: payable(0x303fC2FC594Cf19014Da9831646581CDFc7ECa2E)\n            })\n        );\n        list.push(\n            Person({\n                name: \"QiuYuhang\",\n                votes: 0,\n                ads: payable(0xbe188Cb3730d91Bbf2272e0B827aCF6fFdB4D074)\n            })\n        );\n        list.push(\n            Person({\n                name: \"RaoWenbing\",\n                votes: 0,\n                ads: payable(0xe8d3Ceab4e5E0D33361DA6c7355835417a9B3bbe)\n            })\n        );\n        list.push(\n            Person({\n                name: \"WangXin\",\n                votes: 0,\n                ads: payable(0x25309087503C0C7a4f2e9b1A04875747d61340EC)\n            })\n        );\n        list.push(\n            Person({\n                name: \"XuWang\",\n                votes: 0,\n                ads: payable(0x535186c86B22B423D150530EbD57E48D4297a9Cc)\n            })\n        );\n        list.push(\n            Person({\n                name: \"YangLidong\",\n                votes: 0,\n                ads: payable(0x6143CcC61F582b38626AaDAe93D1F119c66b2a70)\n            })\n        );\n        list.push(\n            Person({\n                name: \"ZhongDakang\",\n                votes: 0,\n                ads: payable(0x8Fb155803f695DBE7B53b94BC1bb6db5D338d60b)\n            })\n        );\n        list.push(\n            Person({\n                name: \"ZhouHuiyu\",\n                votes: 0,\n                ads: payable(0x5b9edA1F23501D891B299919dee69Ce00004cF12)\n            })\n        );\n    }\n\n    // \n    //  view \n    function vote(uint256 target) public payable {\n        require(block.timestamp < endTime, \"-1\"); // \n        require(msg.value >= 100000000000000000, \"-2\"); //  0.1 eth\n\n        // mappingkey-value\n        voted[msg.sender] = true;\n        list[target].votes++;\n\n        //  vote()  Voted \n        emit onVote(msg.sender, target);\n    }\n\n    function setEndTime(uint256 time) public {\n        require(msg.sender == owner, \"-3\"); // \n        endTime = time;\n    }\n\n    function endVote() public {\n        require(msg.sender == owner, \"-3\"); // \n\n        uint256 max = 0;\n        uint256 winnerIndex = 0;\n\n        for (uint256 i = 0; i < list.length; i++) {\n            if (list[i].votes > max) {\n                max = list[i].votes;\n                winnerIndex = i;\n            }\n        }\n\n        list[winnerIndex].ads.transfer(address(this).balance);\n    }\n\n    //  view \n    function getBalance() public view returns (uint256) {\n        return address(this).balance;\n    }\n\n    receive() external payable {}\n\n    // \n    fallback() external payable {}\n}\n",
  "sourcePath": "/Users/vino/Documents/code/eth/contracts/Vote.sol",
  "compiler": {
    "name": "solc",
    "version": "0.8.0+commit.c7dfd78e.Emscripten.clang"
  },
  "schemaVersion": "3.4.3",
  "updatedAt": "2021-10-15T03:19:14.915Z",
  "networkType": "ethereum",
  "devdoc": {
    "kind": "dev",
    "methods": {},
    "version": 1
  },
  "userdoc": {
    "kind": "user",
    "methods": {},
    "version": 1
  }
}